:020000040800F2
:100000000028002085150008D9130008DF13000818
:10001000E5130008EB130008F113000800000000CE
:10002000000000000000000000000000F7130008BE
:1000300003140008000000000F1400081B1400083F
:10004000CD150008CD150008CD150008CD15000808
:10005000CD150008CD150008CD150008CD150008F8
:10006000CD150008CD150008CD150008CD150008E8
:10007000CD150008CD150008CD150008CD150008D8
:10008000CD150008CD150008CD150008CD150008C8
:10009000CD150008CD150008CD150008CD150008B8
:1000A000CD150008CD150008CD150008CD150008A8
:1000B00029140008CD15000800000000CD15000827
:1000C000CD1500080000000000000000CD1500085C
:1000D00000000000CD150008CD150008000000004C
:1000E000CD150008CD150008CD1500080000000052
:1000F0000000000000000000000000000000000000
:0C01000000000000000000005FF808F1A3
:10010C0010B5054C237833B9044B13B10448AFF345
:10011C0000800123237010BD580000200000000057
:10012C00142C000808B5034B1BB103490348AFF36B
:10013C00008008BD000000005C000020142C0008AA
:10014C0080B400AF064B1B68012B04D1044B00227A
:10015C001A60012300E000231846BD4680BC70479E
:10016C007400002080B500AF1F4B1B681F4A136042
:10017C001F4B1B681C4A13604FF400511D4801F0C3
:10018C000BFD03461A461A4B1A60184B1A68164B8D
:10019C001B689A4226D1144B1A68154B1B689A425D
:1001AC0020D1154B1A68124B1B689A420ED0104B7B
:1001BC001B68114A13600E4B1B68002B12D10F4B9E
:1001CC0001221A600E4BC8221A600BE00C4B1B6804
:1001DC00013B0B4A13600A4B1B68002B02D1084BE6
:1001EC00C8221A6000BF80BD04000020000000205F
:1001FC0008000020001001400C00002074000020BA
:10020C001000002080B400AF064B1B68012B04D1FA
:10021C00044B00221A60012300E000231846BD465F
:10022C0080BC70477800002080B500AF1F4B1B6866
:10023C001F4A13601F4B1B681C4A13604FF480410C
:10024C001D4801F0A9FC03461A461A4B1A60184BBC
:10025C001A68164B1B689A4226D1144B1A68154B18
:10026C001B689A4220D1154B1A68124B1B689A4294
:10027C000ED0104B1B68114A13600E4B1B68002BE1
:10028C0012D10F4B01221A600E4BC8221A600BE0E0
:10029C000C4B1B68013B0B4A13600A4B1B68002B71
:1002AC0002D1084BC8221A6000BF80BD1800002084
:1002BC00140000201C000020001001402000002031
:1002CC00780000202400002080B400AF064B1B688F
:1002DC00012B04D1044B00221A60012300E00023FF
:1002EC001846BD4680BC70477C00002080B500AF2E
:1002FC001F4B1B681F4A13601F4B1B681C4A136063
:10030C004FF400411D4801F047FC03461A461A4BB6
:10031C001A60184B1A68164B1B689A4226D1144B5C
:10032C001A68154B1B689A4220D1154B1A68124B50
:10033C001B689A420ED0104B1B68114A13600E4B6F
:10034C001B68002B12D10F4B01221A600E4BC822D6
:10035C001A600BE00C4B1B68013B0B4A13600A4BF9
:10036C001B68002B02D1084BC8221A6000BF80BD4D
:10037C002C0000202800002030000020001001403C
:10038C00340000207C0000203800002080B400AF36
:10039C001A4B1B681A4A82FB03129210DB17D31AF2
:1003AC00184A1360154B1968154B83FB01239A10DF
:1003BC00CB17D21A13469B0013445B00CA1A114B7D
:1003CC005A60114B1B680E4A82FB03129210DB170A
:1003DC00D31A0C4A93600C4B1968094B83FB01230D
:1003EC009A10CB17D21A13469B0013445B00CA1AFF
:1003FC00044BDA6000BFBD4680BC7047880000200B
:10040C0067666666900000208C00002080B582B084
:10041C0000AF78607B68092B00F2808101A252F852
:10042C0023F000BFE106000859040008A1040008ED
:10043C00E90400083105000879050008C105000829
:10044C00090600085106000899060008012201213E
:10045C00B54801F0B8FB00220221B34801F0B3FB10
:10046C0000220421B04801F0AEFB01220821AE4865
:10047C0001F0A9FB01221021AB4801F0A4FB0122E1
:10048C002021A94801F09FFB01224021A64801F040
:10049C009AFB44E100220121A34801F094FB0022C5
:1004AC000221A14801F08FFB012204219E4801F09A
:1004BC008AFB002208219C4801F085FB00221021B8
:1004CC00994801F080FB01222021974801F07BFB29
:1004DC0000224021944801F076FB20E1002201210A
:1004EC00914801F070FB002202218F4801F06BFB58
:1004FC00002204218C4801F066FB002208218A4866
:10050C0001F061FB01221021874801F05CFB012204
:10051C002021854801F057FB00224021824801F040
:10052C0052FBFCE0012201217F4801F04CFB002230
:10053C0002217D4801F047FB002204217A4801F09A
:10054C0042FB01220821784801F03DFB01221021D9
:10055C00754801F038FB00222021734801F033FB71
:10056C0000224021704801F02EFBD8E0002201212E
:10057C006D4801F028FB012202216B4801F023FB9E
:10058C0000220421684801F01EFB00220821664865
:10059C0001F019FB01221021634801F014FB002229
:1005AC002021614801F00FFB002240215E4801F040
:1005BC000AFBB4E0002201215B4801F004FB01229C
:1005CC000221594801F0FFFA00220421564801F09B
:1005DC00FAFA00220821544801F0F5FA0022102101
:1005EC00514801F0F0FA002220214F4801F0EBFABB
:1005FC00002240214C4801F0E6FA90E00022012153
:10060C00494801F0E0FA00220221474801F0DBFAE8
:10061C0000220421444801F0D6FA01220821424864
:10062C0001F0D1FA012210213F4801F0CCFA01224D
:10063C0020213D4801F0C7FA012240213A4801F03F
:10064C00C2FA6CE000220121374801F0BCFA00220A
:10065C000221354801F0B7FA00220421324801F09A
:10066C00B2FA00220821304801F0ADFA0022102124
:10067C002D4801F0A8FA002220212B4801F0A3FA02
:10068C0000224021284801F09EFA48E00022012176
:10069C00254801F098FA00220221234801F093FA30
:1006AC0000220421204801F08EFA002208211E4865
:1006BC0001F089FA012210211B4801F084FA002272
:1006CC002021194801F07FFA00224021164801F040
:1006DC007AFA24E000220121134801F074FA002276
:1006EC000221114801F06FFA002204210E4801F09A
:1006FC006AFA002208210C4801F065FA0022102148
:10070C00094801F060FA00222021074801F05BFA49
:10071C0001224021044801F056FA00E000BF00BF5E
:10072C000837BD4680BD00BF000C014080B582B0CB
:10073C0000AF78607B68032B72D801A252F823F0CB
:10074C005D07000891070008C5070008F9070008B5
:10075C0000220221354801F036FA012204213348E7
:10076C0001F031FA01220821304801F02CFA012263
:10077C0010212E4801F027FA2D4B1B681846FFF765
:10078C0045FE4EE001220221284801F01CFA00220D
:10079C000421264801F017FA01220821234801F010
:1007AC0012FA01221021214801F00DFA204B5B684E
:1007BC001846FFF72BFE34E0012202211B4801F002
:1007CC0002FA01220421194801F0FDF90022082146
:1007DC00164801F0F8F901221021144801F0F3F940
:1007EC00134B9B681846FFF711FE1AE001220221F9
:1007FC000E4801F0E8F9012204210C4801F0E3F95C
:10080C0001220821094801F0DEF9002210210748D5
:10081C0001F0D9F9064BDB681846FFF7F7FD00E04D
:10082C0000BF00BF0837BD4680BD00BF00080140B7
:10083C009000002080B500AF824B1B68013B032B5E
:10084C0000F2F68001A252F823F000BF69080008FC
:10085C00B90800083B090008BD0900080122202145
:10086C00794801F0B0F901224021774801F0ABF949
:10087C0001228021744801F0A6F9724B02221A6001
:10088C00724B1B68184600F065FC704B1B68704A75
:10089C0082FB03125211DB17D31A013B6D4A136012
:1008AC006D4B1B68184600F0B1FCC8E0642000F0EA
:1008BC00C5FD6A4B1B68012B09D1664B1B68013BBC
:1008CC00644A1360644B1B68184600F09FFC644B31
:1008DC001B68012B1DD15B4B03221A60614B1B68FB
:1008EC00184600F037FC5F4B1B68594A82FB031219
:1008FC005211DB17D31A013B564A1360564B1B6837
:10090C00184600F083FCFFF71BFCFFF77BFCFFF79E
:10091C00DBFCFFF715FC0346012B40F08B80494BA9
:10092C000C221A604FF4FA7000F014FC82E04FF4C1
:10093C00967000F083FD494B1B68012B09D1454B88
:10094C001B68013B434A1360434B1B68184600F07D
:10095C005DFC434B1B68012B1DD13A4B04221A60E2
:10096C00414B1B68184600F0F5FB3F4B1B68384A9F
:10097C0082FB03125211DB17D31A013B354A136069
:10098C00354B1B68184600F041FCFFF7D9FBFFF70D
:10099C0039FCFFF799FCFFF7D3FB0346012B4BD136
:1009AC00284B0C221A604FF4FA7000F0D3FB43E092
:1009BC00C82000F043FD294B1B68012B09D1254BA6
:1009CC001B68013B234A1360234B1B68184600F03D
:1009DC001DFC234B1B68012B1DD11A4B02221A60E4
:1009EC001A4B1B68184600F0B5FB184B1B68184ACD
:1009FC0082FB03125211DB17D31A013B154A136009
:100A0C00154B1B68184600F001FCFFF799FBFFF72C
:100A1C00F9FBFFF759FCFFF793FB0346012B0DD1B4
:100A2C00084B0C221A604FF4FA7000F093FB05E0AF
:100A3C0000BF04E000BF02E000BF00E000BF00BF49
:100A4C0080BD00BF80000020000801403C00002059
:100A5C001F85EB518800002048000020B4000020C6
:100A6C00A4000020400000204400002080B500AF0E
:100A7C00684B1B68013B032B00F2C28001A252F8A9
:100A8C0023F000BFA10A0008F70A0008530B000866
:100A9C00B10B000801224FF480715F4801F093F80C
:100AAC0001224FF400715C4801F08DF801224FF4E3
:100ABC008061594801F087F8564B03221A60574B56
:100ACC001B68184600F074FB544B1B68544A82FB9D
:100ADC0003125211DB17D31A013B524A1360524BCB
:100AEC001B68184600F0EEFB91E0642000F0F0FC6F
:100AFC004E4B1B68012B09D14A4B1B68013B494AE1
:100B0C001360494B1B68184600F0DCFB484B1B6814
:100B1C00012B77D13F4B03221A60404B1B681846C0
:100B2C0000F046FB3D4B1B683D4A82FB0312521101
:100B3C00DB17D31A013B3B4A13603B4B1B6818462F
:100B4C0000F0C0FB5EE04FF4967000F0C1FC374B38
:100B5C001B68012B09D1334B1B68013B314A1360D5
:100B6C00314B1B68184600F0ADFB314B1B68012B59
:100B7C004AD1284B04221A602E4B1B68184600F0F1
:100B8C0017FB2C4B1B68264A82FB03125211DB17F6
:100B9C00D31A013B234A1360234B1B68184600F001
:100BAC0091FB31E0C82000F093FC204B1B68012B1B
:100BBC0009D11C4B1B68013B1A4A13601A4B1B686A
:100BCC00184600F07FFB1A4B1B68012B1ED1114BF2
:100BDC0002221A60184B1B68184600F0E9FA164BF3
:100BEC001B680F4A82FB03125211DB17D31A013B0D
:100BFC000C4A13600C4B1B68184600F063FB05E0B5
:100C0C0000BF04E000BF02E000BF00E000BF00BF77
:100C1C0080BD00BF8400002000080140400000207F
:100C2C001F85EB518C00002048000020C4000020E0
:100C3C00AC000020440000203C00002080B500AF38
:100C4C00844B1B680E2B00F0AE800E2B00F3F8804B
:100C5C000C2B02D00D2B58D0F2E0642000F0EEFBF0
:100C6C007D4B00221A6001224FF480717B4800F00A
:100C7C00AAFF01224FF40071784800F0A4FF012272
:100C8C004FF48061754800F09EFF754B02221A608C
:100C9C00744B1B68012B05D16E4B01221A606E4BF5
:100CAC0001221A60FFF74CFA0346012B06D1694B5F
:100CBC000D221A604FF4FA7000F04CFAFFF7A2FA0A
:100CCC000346012B0BD1684B1B680133664A13603A
:100CDC00FFF75CFB4FF40051604800F08CFFFFF70E
:100CEC00F3FA0346012B40F0AD805F4B1B680133D8
:100CFC00642202FB03F35D4A1360FFF747FB4FF4DA
:100D0C000051564800F077FF9CE04FF4967000F0CD
:100D1C0095FB514B00221A6001224FF480714F4811
:100D2C0000F051FF01224FF400714C4800F04BFFD2
:100D3C0001224FF48061494800F045FF484B0322E3
:100D4C001A60484B1B68012B05D1424B01221A60DB
:100D5C00414B01221A60FFF7F3F90346012B06D130
:100D6C003C4B0E221A604FF4FA7000F0F3F9FFF7C7
:100D7C0049FA0346012B06D13B4B1B6801333A4A17
:100D8C001360FFF703FBFFF79FFA0346012B5BD1C0
:100D9C00354B1B680133642202FB03F3344A1360A6
:100DAC00FFF7F4FA50E0C82000F048FB2A4B002271
:100DBC001A6001224FF48071284800F004FF0122D0
:100DCC004FF40071254800F0FEFE01224FF48061C3
:100DDC00224800F0F8FE224B04221A60214B1B68BB
:100DEC00012B05D11B4B01221A601B4B01221A60EF
:100DFC00FFF7A6F90346012B06D1164B0C221A60FD
:100E0C004FF4FA7000F0A6F9FFF7FCF90346012B3A
:100E1C0006D1154B1B680133134A1360FFF7B6FA62
:100E2C00FFF752FA0346012B10D10F4B1B6801330D
:100E3C00642202FB03F30F4A1360FFF7A7FA05E0E5
:100E4C0000BF04E000BF02E000BF00E000BF00BF35
:100E5C0080BD00BF800000208400002000080140FD
:100E6C008C000020A4000020880000203C00002002
:100E7C00400000204400002080B582B000AF00F09C
:100E8C00A1FB00F04FF800F089F800F0D3F82048EF
:100E9C0001F0F6FA1F4B01221A601F4B01221A6057
:100EAC0000237B60012202211C4800F08CFE0122F1
:100EBC0004211A4800F087FE01220821174800F08F
:100ECC0082FE01221021154800F07DFE0A2000F060
:100EDC00CBF901224FF40051104800F074FEFFF7DB
:100EEC00A9FCFFF7C3FDFFF7A9FE0D4B1B68012BF7
:100EFC00F5D10A2000F0B8F97B68032B01DD002343
:100F0C007B607868FFF712FC7B6801337B60E6E757
:100F1C00C800002080000020840000200008014050
:100F2C00BC00002080B590B000AF07F11803282258
:100F3C000021184601F060FE3B1D00221A605A6029
:100F4C009A60DA601A610223BB610123BB62102331
:100F5C00FB6200237B6307F11803184600F064FE64
:100F6C000346002B01D000F0EFF80F237B60002329
:100F7C00BB600023FB6000233B6100237B613B1DB6
:100F8C000021184601F0D0F80346002B01D000F0E8
:100F9C00DBF800BF4037BD4680BD000080B586B091
:100FAC0000AF07F1080300221A605A609A60DA60F9
:100FBC003B4600221A605A601D4B4FF080421A606B
:100FCC001B4B41F63F725A60194B00229A60184B2A
:100FDC000922DA60164B00221A61154B00229A6125
:100FEC00134801F0FDF90346002B01D000F0ACF8DA
:100FFC004FF48053BB6007F1080319460C4801F00D
:10100C0093FB0346002B01D000F09EF800233B60BD
:10101C0000237B603B461946054801F05FFD034603
:10102C00002B01D000F090F800BF1837BD4680BDF2
:10103C00C800002080B588B000AF07F11003002273
:10104C001A605A609A60DA602E4B9B692D4A43F005
:10105C00100393612B4B9B6903F01003FB60FB683F
:10106C00284B9B69274A43F004039361254B9B69EA
:10107C0003F00403BB60BB68224B9B69214A43F01D
:10108C00080393611F4B9B6903F008037B607B682B
:10109C00002242F2FE711C4800F095FD00227F21D7
:1010AC001A4800F090FD4FF460433B6100237B61D4
:1010BC000123BB6107F110031946154800F0F2FB40
:1010CC0042F2FE733B6101237B610023BB6102236F
:1010DC00FB6107F1100319460B4800F0E3FB7F237B
:1010EC003B6101237B610023BB610223FB6107F1A0
:1010FC0010031946054800F0D5FB00BF2037BD464C
:10110C0080BD00BF0010024000080140000C0140EF
:10111C000010014080B582B000AF786000F02EF86E
:10112C0000F05AF800F086F800F0B2F800F0DEF8A3
:10113C00FFF718F8FFF778F8FFF7D8F8FFF726F95C
:10114C0000BF0837BD4680BD80B400AF72B600BF8B
:10115C00FEE7000080B483B000AF7860054A7B687E
:10116C001360054B00221A6000BF0C37BD4680BCD3
:10117C00704700BFA0000020A400002080B400AF86
:10118C00094B1B68002B0BDD074B1B68013B064A08
:10119C001360054B1B68002B02DC044B01221A6008
:1011AC0000BFBD4680BC7047A0000020A4000020FA
:1011BC0080B483B000AF7860054A7B681360054B40
:1011CC0000221A6000BF0C37BD4680BC704700BFC0
:1011DC00A8000020AC00002080B400AF094B1B68B5
:1011EC00002B0BDD074B1B68013B064A1360054BBC
:1011FC001B68002B02DC044B01221A6000BFBD46A9
:10120C0080BC7047A8000020AC00002080B483B0E4
:10121C0000AF7860054A7B681360054B00221A60AA
:10122C0000BF0C37BD4680BC704700BFB00000202B
:10123C00B400002080B400AF094B1B68002B0BDD01
:10124C00074B1B68013B064A1360054B1B68002BC0
:10125C0002DC044B01221A6000BFBD4680BC704703
:10126C00B0000020B400002080B483B000AF7860E0
:10127C00054A7B681360054B00221A6000BF0C37CF
:10128C00BD4680BC704700BFB8000020BC000020E9
:10129C0080B400AF094B1B68002B0BDD074B1B68A0
:1012AC00013B064A1360054B1B68002B02DC044B08
:1012BC0001221A6000BFBD4680BC7047B8000020F8
:1012CC00BC00002080B483B000AF7860054A7B6816
:1012DC001360054B00221A6000BF0C37BD4680BC62
:1012EC00704700BFC0000020C400002080B400AFD5
:1012FC00094B1B68002B0BDD074B1B68013B064A97
:10130C001360054B1B68002B02DC044B01221A6096
:10131C0000BFBD4680BC7047C0000020C400002048
:10132C0080B485B000AF154B9B69144A43F00103A0
:10133C009361124B9B6903F00103BB60BB680F4BBD
:10134C00DB690E4A43F08053D3610C4BDB6903F02D
:10135C0080537B607B680A4B5B68FB60FB6823F007
:10136C00E063FB60FB6843F08063FB60044AFB684E
:10137C00536000BF1437BD4680BC7047001002405C
:10138C000000014080B584B000AF78607B681B68BA
:10139C00B3F1804F13D10C4BDB690B4A43F00103C3
:1013AC00D361094BDB6903F00103FB60FB6800228E
:1013BC0000211C2000F03FFA1C2000F058FA00BF5E
:1013CC001037BD4680BD00BF0010024080B400AF96
:1013DC00FEE780B400AFFEE780B400AFFEE780B458
:1013EC0000AFFEE780B400AFFEE780B400AF00BFF3
:1013FC00BD4680BC704780B400AF00BFBD4680BC0A
:10140C00704780B400AF00BFBD4680BC704780B54C
:10141C0000AF00F01DF900BF80BD000080B500AF2B
:10142C00024801F079F800BF80BD00BFC800002061
:10143C0080B400AF00BFBD4680BC704780B582B0A1
:10144C0000AF78607B68B3F5967F2AD07B68B3F5E4
:10145C00967F36DC7B68642B03D07B68C82B10D05E
:10146C002FE000222021194800F0ADFB0122402181
:10147C00164800F0A8FB01228021144800F0A3FBC1
:10148C0020E001222021114800F09DFB0022402188
:10149C000E4800F098FB012280210C4800F093FBD1
:1014AC0010E001222021094800F08DFB012240218F
:1014BC00064800F088FB00228021044800F083FBE2
:1014CC0000E000BF00BF0837BD4680BD00080140EA
:1014DC0080B582B000AF78607B68B3F5967F30D072
:1014EC007B68B3F5967F3FDC7B68642B03D07B680D
:1014FC00C82B13D038E000224FF480711D4800F047
:10150C0062FB01224FF400711A4800F05CFB0122CF
:10151C004FF48061174800F056FB26E001224FF48F
:10152C008071144800F04FFB00224FF400711148F9
:10153C0000F049FB01224FF480610E4800F043FBA0
:10154C0013E001224FF480710A4800F03CFB0122A9
:10155C004FF40071074800F036FB00224FF4806115
:10156C00044800F030FB00E000BF00BF0837BD4668
:10157C0080BD00BF00080140FFF75AFF0B480C4923
:10158C000C4A002302E0D458C4500433C4188C42D3
:10159C00F9D3094A094C002301E013600432A2423A
:1015AC00FBD301F005FBFFF767FC70470000002040
:1015BC0058000020582C000858000020140100206E
:1015CC00FEE7000080B500AF084B1B68074A43F0EC
:1015DC0010031360032000F023F90F2000F008F82B
:1015EC00FFF79EFE0023184680BD00BF002002407E
:1015FC0080B582B000AF7860124B1A68124B1B7822
:10160C0019464FF47A73B3FBF1F3B2FBF3F31846BC
:10161C0000F03BF90346002B01D001230EE07B6860
:10162C000F2B0AD8002279684FF0FF3000F003F935
:10163C00064A7B681360002300E001231846083734
:10164C00BD4680BD4C0000205400002050000020FE
:10165C0080B400AF054B1B781A46054B1B6813442E
:10166C00034A136000BFBD4680BC70475400002085
:10167C001001002080B400AF024B1B681846BD4619
:10168C0080BC70471001002080B485B000AF78603A
:10169C007B6803F00703FB600C4BDB68BB60BA682C
:1016AC004FF6FF031340BB60FB681A02BB68134381
:1016BC0043F0BF6343F40033BB60044ABB68D360A0
:1016CC0000BF1437BD4680BC704700BF00ED00E082
:1016DC0080B400AF044BDB681B0A03F00703184609
:1016EC00BD4680BC704700BF00ED00E080B483B005
:1016FC0000AF0346FB7197F90730002B0BDBFB792E
:10170C0003F01F02064997F907305B09012000FA24
:10171C0002F241F8232000BF0C37BD4680BC704755
:10172C0000E100E080B483B000AF03463960FB7188
:10173C0097F90730002B0ADB3B68DAB20C4997F9B2
:10174C0007301201D2B20B4483F800230AE03B6845
:10175C00DAB20849FB7903F00F03043B1201D2B251
:10176C000B441A7600BF0C37BD4680BC704700BFD7
:10177C0000E100E000ED00E080B489B000AFF8605B
:10178C00B9607A60FB6803F00703FB61FB69C3F186
:10179C000703042B28BF0423BB61FB690433062B0E
:1017AC0002D9FB69033B00E000237B614FF0FF3261
:1017BC00BB6902FA03F3DA43BB681A407B699A40AF
:1017CC004FF0FF317B6901FA03F3D9437B680B407F
:1017DC00134318462437BD4680BC704780B582B091
:1017EC0000AF78607B68013BB3F1807F01D30123AC
:1017FC000FE00A4A7B68013B53600F214FF0FF302A
:10180C00FFF790FF054B00229A60044B07221A60E9
:10181C00002318460837BD4680BD00BF10E000E02D
:10182C0080B582B000AF78607868FFF72DFF00BFFD
:10183C000837BD4680BD80B586B000AF0346B960A1
:10184C007A60FB7300237B61FFF742FF78617A6853
:10185C00B9687869FFF790FF024697F90F30114687
:10186C001846FFF75FFF00BF1837BD4680BD80B537
:10187C0082B000AF0346FB7197F907301846FFF7AB
:10188C0035FF00BF0837BD4680BD80B582B000AFC4
:10189C0078607868FFF7A2FF034618460837BD4604
:1018AC0080BD000080B48BB000AF7860396000233D
:1018BC007B6200233B6248E101227B6A02FA03F35C
:1018CC00FB613B681B68FA691340BB61BA69FB6931
:1018DC009A4240F037813B685B68A34A93425ED0E2
:1018EC00A14A934275D8A14A934258D09F4A934239
:1018FC006FD89F4A934252D09D4A934269D89D4AD1
:10190C0093424CD09B4A934263D89B4A934246D015
:10191C00994A93425DD8122B2AD8122B59D801A27E
:10192C0052F823F0AB190008851900089719000824
:10193C00D9190008DF190008DF190008DF190008A1
:10194C00DF190008DF190008DF190008DF1900088B
:10195C00DF190008DF190008DF190008DF1900087B
:10196C00DF190008DF1900088D190008A1190008FB
:10197C00824A934213D02CE03B68DB683B6229E03F
:10198C003B68DB6804333B6224E03B68DB6808336C
:10199C003B621FE03B68DB680C333B621AE03B6840
:1019AC009B68002B02D104233B6213E03B689B68CD
:1019BC00012B05D108233B627B68FA691A6109E0A7
:1019CC0008233B627B68FA695A6103E000233B629F
:1019DC0000E000BFBB69FF2B01D87B6801E07B688E
:1019EC0004337B61BB69FF2B02D87B6A9B0002E04E
:1019FC007B6A083B9B003B617B691A680F213B6942
:101A0C0001FA03F3DB431A40396A3B6901FA03F329
:101A1C001A437B691A603B685B6803F08053002BA8
:101A2C0000F09080564B9B69554A43F0010393613B
:101A3C00534B9B6903F00103BB60BB68514A7B6A43
:101A4C009B08023352F82330FB607B6A03F00303DC
:101A5C009B000F2202FA03F3DB43FA681340FB608E
:101A6C007B68494A93420DD07B68484A934207D021
:101A7C007B68474A934201D1022304E0032302E02E
:101A8C00012300E000237A6A02F0030292009340E3
:101A9C00FA681343FB603B497B6A9B080233FA6884
:101AAC0041F823203B685B6803F48013002B06D0BD
:101ABC00384B9A683749BB6913438B6006E0354B4A
:101ACC009A68BB69DB43334913408B603B685B68A6
:101ADC0003F40013002B06D02E4BDA682D49BB699A
:101AEC001343CB6006E02B4BDA68BB69DB43294917
:101AFC001340CB603B685B6803F40033002B06D0CB
:101B0C00244B5A682349BB6913434B6006E0214BB5
:101B1C005A68BB69DB431F4913404B603B685B68E9
:101B2C0003F48033002B06D01A4B1A681949BB6991
:101B3C0013430B6006E0174B1A68BB69DB4315496E
:101B4C0013400B607B6A01337B623B681A687B6ACB
:101B5C0022FA03F3002B7FF4AFAE00BF00BF2C378B
:101B6C00BD4680BC704700BF000032100000311031
:101B7C0000002210000021100000121000001110B3
:101B8C00001002400000014000080140000C014020
:101B9C00001001400004014080B485B000AF7860B3
:101BAC000B467B807B689A687B881340002B02D0A5
:101BBC000123FB7301E00023FB73FB7B18461437F6
:101BCC00BD4680BC704780B483B000AF78600B46D4
:101BDC007B8013467B707B78002B03D07A887B68E4
:101BEC001A6103E07B881A047B681A6100BF0C370A
:101BFC00BD4680BC704780B485B000AF78600B46A2
:101C0C007B807B68DB68FB607A88FB6813401A0476
:101C1C00FB68D9437B880B401A437B681A6100BF71
:101C2C001437BD4680BC704780B586B000AF786075
:101C3C007B68002B01D101236CE27B681B6803F0ED
:101C4C000103002B00F08780924B5B6803F00C03C0
:101C5C00042B0CD08F4B5B6803F00C03082B12D1B8
:101C6C008C4B5B6803F48033B3F5803F0BD1894B0D
:101C7C001B6803F40033002B6CD07B685B68002B73
:101C8C0068D1012346E27B685B68B3F5803F06D1DF
:101C9C00804B1B687F4A43F4803313602EE07B68D3
:101CAC005B68002B0CD17B4B1B687A4A23F4803386
:101CBC001360784B1B68774A23F4802313601DE074
:101CCC007B685B68B3F5A02F0CD1724B1B68714A13
:101CDC0043F4802313606F4B1B686E4A43F48033CC
:101CEC0013600BE06B4B1B686A4A23F48033136060
:101CFC00684B1B68674A23F4802313607B685B681E
:101D0C00002B13D0FFF7B6FC386108E0FFF7B2FCEC
:101D1C0002463B69D31A642B01D90323FAE15D4BCC
:101D2C001B6803F40033002BF0D014E0FFF7A2FC87
:101D3C00386108E0FFF79EFC02463B69D31A642B1E
:101D4C0001D90323E6E1534B1B6803F40033002B4A
:101D5C00F0D100E000BF7B681B6803F00203002B8E
:101D6C0063D04C4B5B6803F00C03002B0BD0494B3E
:101D7C005B6803F00C03082B1CD1464B5B6803F427
:101D8C008033002B16D1434B1B6803F00203002B4E
:101D9C0005D07B681B69012B01D00123BAE13D4BB7
:101DAC001B6823F0F8027B685B69DB00394913433D
:101DBC000B603AE07B681B69002B20D0364B01226C
:101DCC001A60FFF757FC386108E0FFF753FC024636
:101DDC003B69D31A022B01D903239BE12D4B1B68C2
:101DEC0003F00203002BF0D02A4B1B6823F0F802FF
:101DFC007B685B69DB00274913430B6015E0264BBE
:101E0C0000221A60FFF736FC386108E0FFF732FC5D
:101E1C0002463B69D31A022B01D903237AE11D4BED
:101E2C001B6803F00203002BF0D17B681B6803F0E6
:101E3C000803002B3AD07B689B69002B19D0174BF9
:101E4C0001221A60FFF716FC386108E0FFF712FC5C
:101E5C0002463B69D31A022B01D903235AE10D4BDD
:101E6C005B6A03F00203002BF0D0012000F09AFA19
:101E7C001CE00A4B00221A60FFF7FCFB38610FE0F4
:101E8C00FFF7F8FB02463B69D31A022B08D9032350
:101E9C0040E100BF00100240000042428004424278
:101EAC009E4B5B6A03F00203002BE9D17B681B6835
:101EBC0003F00403002B00F0A6800023FB75974B66
:101ECC00DB6903F08053002B0DD1944BDB69934AF3
:101EDC0043F08053D361914BDB6903F08053BB60BB
:101EEC00BB680123FB758E4B1B6803F48073002BBE
:101EFC0018D18B4B1B688A4A43F480731360FFF72D
:101F0C00B9FB386108E0FFF7B5FB02463B69D31A11
:101F1C00642B01D90323FDE0814B1B6803F4807310
:101F2C00002BF0D07B68DB68012B06D17B4B1B6A46
:101F3C007A4A43F0010313622DE07B68DB68002BC7
:101F4C000CD1764B1B6A754A23F001031362734B59
:101F5C001B6A724A23F0040313621CE07B68DB6883
:101F6C00052B0CD16D4B1B6A6C4A43F004031362B6
:101F7C006A4B1B6A694A43F0010313620BE0674B1F
:101F8C001B6A664A23F001031362644B1B6A634AA3
:101F9C0023F0040313627B68DB68002B15D0FFF77A
:101FAC0069FB38610AE0FFF765FB02463B69D31A0F
:101FBC0041F28832934201D90323ABE0574B1B6AA1
:101FCC0003F00203002BEED014E0FFF753FB386153
:101FDC000AE0FFF74FFB02463B69D31A41F2883205
:101FEC00934201D9032395E04C4B1B6A03F0020387
:101FFC00002BEED1FB7D012B05D1484BDB69474A09
:10200C0023F08053D3617B68DB69002B00F0818067
:10201C00424B5B6803F00C03082B61D07B68DB69D7
:10202C00022B46D13F4B00221A60FFF723FB38618D
:10203C0008E0FFF71FFB02463B69D31A022B01D9BC
:10204C00032367E0354B1B6803F00073002BF0D1C2
:10205C007B681B6AB3F5803F08D1304B5B6823F477
:10206C0000327B689B682D4913434B602B4B5B689C
:10207C0023F474127B68196A7B685B6A0B432749EB
:10208C0013434B60274B01221A60FFF7F3FA3861B8
:10209C0008E0FFF7EFFA02463B69D31A022B01D98D
:1020AC00032337E01D4B1B6803F00073002BF0D0AB
:1020BC002FE01C4B00221A60FFF7DCFA386108E0B5
:1020CC00FFF7D8FA02463B69D31A022B01D9032336
:1020DC0020E0124B1B6803F00073002BF0D118E0CA
:1020EC007B68DB69012B01D1012313E00B4B5B688F
:1020FC00FB60FB6803F480327B681B6A9A4206D152
:10210C00FB6803F470127B685B6A9A4201D001236E
:10211C0000E0002318461837BD4680BD0010024071
:10212C00007000406000424280B584B000AF78601F
:10213C0039607B68002B01D10123D0E06A4B1B680E
:10214C0003F007033A689A4210D9674B1B6823F0D7
:10215C00070265493B6813430B60634B1B6803F034
:10216C0007033A689A4201D00123B8E07B681B68E8
:10217C0003F00203002B20D07B681B6803F00403E0
:10218C00002B05D0594B5B68584A43F4E06353600D
:10219C007B681B6803F00803002B05D0534B5B686E
:1021AC00524A43F460535360504B5B6823F0F00287
:1021BC007B689B684D4913434B607B681B6803F03D
:1021CC000103002B40D07B685B68012B07D1474B88
:1021DC001B6803F40033002B15D101237FE07B68CF
:1021EC005B68022B07D1414B1B6803F00073002B7B
:1021FC0009D1012373E03D4B1B6803F00203002B54
:10220C0001D101236BE0394B5B6823F003027B683F
:10221C005B68364913434B60FFF72CFAF8600AE011
:10222C00FFF728FA0246FB68D31A41F28832934230
:10223C0001D9032353E02D4B5B6803F00C027B6840
:10224C005B689B009A42EBD1274B1B6803F007039A
:10225C003A689A4210D2244B1B6823F00702224999
:10226C003B6813430B60204B1B6803F007033A6871
:10227C009A4201D0012332E07B681B6803F004030F
:10228C00002B08D0194B5B6823F4E0627B68DB6899
:10229C00164913434B607B681B6803F00803002B43
:1022AC0009D0124B5B6823F460527B681B69DB001E
:1022BC000E4913434B6000F021F802460B4B5B6850
:1022CC001B0903F00F030A49CB5C22FA03F3094AFA
:1022DC001360094B1B681846FFF78AF90023184650
:1022EC001037BD4680BD00BF0020024000100240E8
:1022FC002C2C00084C0000205000002080B487B02B
:10230C0000AF0023FB600023BB6000237B61002334
:10231C007B6000233B611E4B5B68FB60FB6803F03A
:10232C000C03042B02D0082B03D027E0194B3B6184
:10233C0027E0FB689B0C03F00F03174AD35C7B6010
:10234C00FB6803F48033002B10D0114B5B685B0CE3
:10235C0003F00103114AD35CBB607B680D4A02FB9E
:10236C0003F2BB68B2FBF3F37B6104E07B680C4ABD
:10237C0002FB03F37B617B693B6102E0054B3B6134
:10238C0000BF3B6918461C37BD4680BC704700BF78
:10239C000010024000127A003C2C00084C2C000863
:1023AC0000093D0080B485B000AF78600A4B1B6813
:1023BC000A4AA2FB03235B0A7A6802FB03F3FB6065
:1023CC0000BFFB685A1EFA60002BF9D100BF00BF9A
:1023DC001437BD4680BC70474C000020D34D6210B2
:1023EC0080B582B000AF78607B68002B01D10123EF
:1023FC0041E07B6893F83D30DBB2002B06D17B6863
:10240C00002283F83C207868FEF7BCFF7B68022230
:10241C0083F83D207B681A687B68043319461046A4
:10242C0000F06EFA7B68012283F846207B6801225B
:10243C0083F83E207B68012283F83F207B680122D1
:10244C0083F840207B68012283F841207B680122BD
:10245C0083F842207B68012283F843207B680122A9
:10246C0083F844207B68012283F845207B68012295
:10247C0083F83D20002318460837BD4680BD000078
:10248C0080B485B000AF78607B6893F83D30DBB2E8
:10249C00012B01D0012335E07B68022283F83D201B
:1024AC007B681B68DA687B681B6842F00102DA60A3
:1024BC007B681B68164A934209D07B681B68B3F192
:1024CC00804F04D07B681B68124A934211D17B6801
:1024DC001B689B6803F00703FB60FB68062B10D09E
:1024EC007B681B681A687B681B6842F001021A60E3
:1024FC0007E07B681B681A687B681B6842F0010266
:10250C001A60002318461437BD4680BC704700BFC4
:10251C00002C01400004004080B582B000AF786010
:10252C007B681B681B6903F00203022B22D17B68BA
:10253C001B68DB6803F00203022B1BD17B681B6852
:10254C006FF002021A617B6801221A777B681B68A4
:10255C009B6903F00303002B03D0786800F0B4F9F7
:10256C0005E0786800F0A7F9786800F0B6F97B68A8
:10257C0000221A777B681B681B6903F00403042B89
:10258C0022D17B681B68DB6803F00403042B1BD18E
:10259C007B681B686FF004021A617B6802221A7751
:1025AC007B681B689B6903F44073002B03D078682D
:1025BC0000F08AF905E0786800F07DF9786800F0A1
:1025CC008CF97B6800221A777B681B681B6903F007
:1025DC000803082B22D17B681B68DB6803F0080317
:1025EC00082B1BD17B681B686FF008021A617B6893
:1025FC0004221A777B681B68DB6903F00303002B4A
:10260C0003D0786800F060F905E0786800F053F9C1
:10261C00786800F062F97B6800221A777B681B6887
:10262C001B6903F01003102B22D17B681B68DB683D
:10263C0003F01003102B1BD17B681B686FF010028A
:10264C001A617B6808221A777B681B68DB6903F4C4
:10265C004073002B03D0786800F036F905E07868F9
:10266C0000F029F9786800F038F97B6800221A77B5
:10267C007B681B681B6903F00103012B0ED17B687F
:10268C001B68DB6803F00103012B07D17B681B6817
:10269C006FF001021A617868FEF73CFD7B681B68DD
:1026AC001B6903F08003802B0ED17B681B68DB68F1
:1026BC0003F08003802B07D17B681B686FF08002CE
:1026CC001A61786800F06BFA7B681B681B6903F071
:1026DC004003402B0ED17B681B68DB6803F0400382
:1026EC00402B07D17B681B686FF040021A61786839
:1026FC0000F0FCF87B681B681B6903F02003202B9F
:10270C000ED17B681B68DB6803F02003202B07D1FC
:10271C007B681B686FF020021A61786800F036FA4B
:10272C0000BF0837BD4680BD80B584B000AF78606F
:10273C0039600023FB737B6893F83C30012B01D18B
:10274C000223B4E07B68012283F83C207B680222E0
:10275C0083F83D207B681B689B68BB60BB6823F0DB
:10276C007703BB60BB6823F47F43BB607B681B684B
:10277C00BA689A603B681B68B3F5005F3ED0B3F54E
:10278C00005F00F28780B3F5805F00F08680B3F5C0
:10279C00805F7FD8702B1AD0702B7BD8602B50D0D9
:1027AC00602B77D8502B3CD0502B73D8402B58D063
:1027BC00402B6FD8302B64D0302B6BD8202B60D0B3
:1027CC00202B67D8002B5CD0102B5AD062E07B6892
:1027DC0018683B6899683B685A683B68DB6800F08E
:1027EC005EF97B681B689B68BB60BB6843F0770332
:1027FC00BB607B681B68BA689A604FE07B6818689E
:10280C003B6899683B685A683B68DB6800F047F99D
:10281C007B681B689A687B681B6842F480429A60EC
:10282C003CE07B6818683B6859683B68DB681A4673
:10283C0000F0BEF87B681B685021184600F015F9B3
:10284C002CE07B6818683B6859683B68DB681A4663
:10285C0000F0DCF87B681B686021184600F005F975
:10286C001CE07B6818683B6859683B68DB681A4653
:10287C0000F09EF87B681B684021184600F0F5F8C4
:10288C000CE07B681A683B681B681946104600F020
:10289C00ECF803E00123FB7300E000BF7B6801222E
:1028AC0083F83D207B68002283F83C20FB7B184694
:1028BC001037BD4680BD80B483B000AF786000BFD8
:1028CC000C37BD4680BC704780B483B000AF7860D5
:1028DC0000BF0C37BD4680BC704780B483B000AFDE
:1028EC00786000BF0C37BD4680BC704780B483B0A5
:1028FC0000AF786000BF0C37BD4680BC704700004D
:10290C0080B485B000AF786039607B681B68FB6071
:10291C007B68254A934207D07B68B3F1804F03D084
:10292C007B68224A934208D1FB6823F07003FB605A
:10293C003B685B68FA681343FB607B681A4A9342F6
:10294C0007D07B68B3F1804F03D07B68174A934262
:10295C0008D1FB6823F44073FB603B68DB68FA68C2
:10296C001343FB60FB6823F080023B685B691343F5
:10297C00FB607B68FA681A603B689A687B68DA626D
:10298C003B681A687B689A627B68074A934203D15A
:10299C003B681A697B681A637B6801225A6100BF25
:1029AC001437BD4680BC7047002C01400004004029
:1029BC0080B487B000AFF860B9607A60FB681B6ABE
:1029CC007B61FB681B6A23F00102FB681A62FB68DF
:1029DC009B693B613B6923F0F0033B617B681B0106
:1029EC003A6913433B617B6923F00A037B617A6983
:1029FC00BB6813437B61FB683A699A61FB687A692F
:102A0C001A6200BF1C37BD4680BC704780B487B0CB
:102A1C0000AFF860B9607A60FB681B6A7B61FB6889
:102A2C001B6A23F01002FB681A62FB689B693B610E
:102A3C003B6923F470433B617B681B033A69134386
:102A4C003B617B6923F0A0037B61BB681B017A6946
:102A5C0013437B61FB683A699A61FB687A691A6275
:102A6C0000BF1C37BD4680BC704780B485B000AF3A
:102A7C00786039607B689B68FB60FB6823F07003AF
:102A8C00FB603A68FB68134343F00703FB607B6809
:102A9C00FA689A6000BF1437BD4680BC704780B49A
:102AAC0087B000AFF860B9607A603B60FB689B68E8
:102ABC007B617B6923F47F437B613B681A027B68F3
:102ACC001A43BB6813437A6913437B61FB687A69C9
:102ADC009A6000BF1C37BD4680BC704780B485B07F
:102AEC0000AF786039607B6893F83C30012B01D1E2
:102AFC00022341E07B68012283F83C207B680222A0
:102B0C0083F83D207B681B685B68FB607B681B68F7
:102B1C009B68BB60FB6823F07003FB603B681B6821
:102B2C00FA681343FB607B681B68FA685A607B6821
:102B3C001B68144A934209D07B681B68B3F1804F21
:102B4C0004D07B681B68104A93420CD1BB6823F0FD
:102B5C008003BB603B685B68BA681343BB607B68EF
:102B6C001B68BA689A607B68012283F83D207B68F9
:102B7C00002283F83C20002318461437BD4680BC45
:102B8C00704700BF002C01400004004080B483B0AB
:102B9C0000AF786000BF0C37BD4680BC704780B476
:102BAC0083B000AF786000BF0C37BD4680BC704767
:102BBC0070B500260C4D0D4C641BA410A64209D117
:102BCC0000F022F800260A4D0A4C641BA410A64201
:102BDC0005D170BD55F8043B98470136EEE755F822
:102BEC00043B98470136F2E7502C0008502C0008A3
:102BFC00502C0008542C000803460244934200D188
:102C0C00704703F8011BF9E7F8B500BFF8BC08BC26
:102C1C009E467047F8B500BFF8BC08BC9E4670478E
:102C2C000000000000000000010203040607080970
:102C3C0002030405060708090A0B0C0D0E0F1010F1
:042C4C000102000081
:042C50003101000846
:042C54000D01000866
:102C58000100000001000000010000000100000068
:102C6800C800000001000000010000000100000091
:102C780001000000C8000000010000000100000081
:102C88000100000001000000C8000000F40100007D
:102C98002C010000C8000000640000000024F400BB
:082CA800100000000100000013
:040000050800158555
:00000001FF
